:100000000C947E020C94810D0C94C5020C94C502D4
:100010000C94C5020C94C5020C94C5020C94C50244
:100020000C94C5020C94C5020C9479250C944B26B3
:100030000C94411B0C94C5020C94C5020C94C5028F
:100040000C94C5020C94C5020C94C5020C94C50214
:100050000C94C5020C94A91B0C94C5020C94C50207
:100060000C94C5020C94C5020C94C5020C94C502F4
:100070000C94C5020C94C5020C94C5020C94C502E4
:100080000C94C5020C94C5020C94C5020C94C502D4
:100090000C94C5020C94C5020C94C5020C94C502C4
:1000A0000C94C5020C94C5020C94C502B204B404AD
:1000B000BF04B604B804BA04BC04BE04C104C3043B
:1000C000C504D004C704C904CB04CD04CF04D204B2
:1000D0004D114D117F117F11BD11DD11721372137E
:1000E0001F127213CC12CC123E13471372136B13F0
:1000F000D912D912D912D912D912D912D912D912A8
:10010000D912D912D912D912D912D912D912D91297
:10011000EA12F812FF120613101303140314151435
:1001200015140C14151415141514031403141114B8
:10013000151415141114B826DF26D127DF26D12770
:100140002B274E27D127A427B32729001E001F00E5
:100150002000210022002B0014001A0008001500C6
:100160001700E10004001600070009000A00E00083
:100170001D001B00060019000500000000002F00F4
:10018000E30001512C002A0027002600250024004E
:1001900023003100130012000C0018001C00340072
:1001A00033000F000E000D000B0028003800370050
:1001B000360010001100000000003000E200025183
:1001C0002C00350000000000000000000000350297
:1001D000000052000000000000000000500051002C
:1001E0004F000000000000000000000000000000C0
:1001F00000000000000000000000010000002A00D4
:100200002E002D0000000000000000000000000093
:10021000000000000000000000004F0052005100EC
:10022000500000000000000000000000000000007E
:10023000000000000000000000003A003B003C000D
:100240003D003E003F0000000000520000000000A2
:1002500000000000500051004F00000000000000AE
:10026000000000000000000000000000000000008E
:10027000000000000000450044004300420041002F
:1002800040004C00000000000000000000004B0097
:100290000000000000000000BC004E0000008000D4
:1002A00081007F00BB000000000000000000010092
:1002B0000000000000000001010101010101010135
:1002C0000202020202020202020303030303030307
:1002D00003040404040404050505050506060606D2
:1002E0000607070707080808080909090A0A0A0A89
:1002F0000B0B0B0C0C0C0D0D0D0E0E0F0F0F101029
:1003000011111112121313141415151616171718AC
:100310001819191A1A1B1C1C1D1D1E1F1F20202115
:1003200022222324252526272728292A2B2B2C2D5A
:100330002E2F2F30313233343536363738393A3B79
:100340003C3D3E3F4041424344464748494A4B4C6E
:100350004D4F50515253555657585A5B5C5E5F6033
:100360006263646667696A6C6D6E707173747678C7
:10037000797B7C7E8081838486888A8B8D8F919225
:100380009496989A9B9D9FA1A3A5A7A9ABADAFB149
:10039000B3B5B7B9BBBDBFC1C4C6C8CACCCFD1D332
:1003A000D6D8DADCDFE1E4E6E8EBEDF0F2F5F7FAD7
:1003B000FCFF0403300000001C03490072006900C8
:1003C000730020004B006500790062006F0061003F
:1003D0007200640000000E034B00650065006200BF
:1003E00069006F0000000403090409023B000201D8
:1003F00000A0FA0904000001030101000921110114
:1004000000012240000705810308000A09040100D9
:1004100001030000000921110100012285000705E8
:10042000820320000A1201100100000008EBCE56E2
:100430001200020102030105010902A1018502095E
:1004400001A100050919012905150025019505756A
:1004500001810295017503810105010930093115FA
:1004600081257F95027508810609381581257F95BC
:100470000175088106050C0A38021581257F950152
:1004800075088106C0C005010980A1018503160118
:10049000002603001A81002A83007510950181004F
:1004A000C0050C0901A1018504160100269C021A51
:1004B00001002A9C02751095018100C00501090602
:1004C000A101050719E029E7150025019508750127
:1004D0008102950175088101050819012905950515
:1004E000750191029501750391010507190029FF16
:1004F000150026FF00950675088100C011241FBE57
:10050000CFEFDAE0DEBFCDBF04B603FE27C0809197
:10051000400290914102A0914202B0914302873083
:10052000904BA740B04BD1F4109240021092410280
:10053000109242021092430214BE84B7877F84BF98
:100540000FB6F894A8958091600088618093600050
:10055000109260000FBEE0E0F8E3099511E0A0E022
:10056000B1E0E2E9F1E502C005900D92A633B107D2
:10057000D9F722E0A6E3B1E001C01D92A034B20792
:10058000E1F70E949D220C94C7280C9400000C9463
:100590003B0881E0089581E008950C94CB020C940F
:1005A0003D08CF92DF92EF92FF92863030F48111B6
:1005B00005C0909180009F7704C085E090918000F5
:1005C000906890938000282F30E0AFEFBFEF0E943B
:1005D000652825E030E040E050E00E943D282C37BF
:1005E00084E138074105510530F4C90169E070E044
:1005F0000E94152829C0DA01C9018A50974DAF4FD2
:10060000BF4F6627782F892F9A2F25EF38E241E0D8
:1006100050E00E943D2869017A01CA01B9010E9497
:1006200005289B01AC01C701B6010E940528BB2724
:10063000A92F982F872F009721E0A207B10511F06D
:10064000BC0102C06FEF7FEF709389006093880058
:10065000FF90EF90DF90CF900895259A2D9882E833
:100660008093800089E1809381008FEF9FEF9093CA
:100670008700809386000C942D200E94321A8111ED
:1006800002C00E94A91A0E942D030C94C70208956B
:100690000C9447030C94480308950E94F1130E94A0
:1006A0004C032FEF84E39CE0215080409040E1F721
:1006B00000C0000087E797E7909301088093000847
:1006C0000C94CF1BFF920F931F93CF93DF938C015A
:1006D000FC01C081D18180917201811113C082819E
:1006E000882349F0CE010E942519F82E682FCE01EB
:1006F0000E94C81804C0CE010E94F818F82EBE014E
:100700008F2D04C0CE010E942519BE010E948605CE
:10071000EC01B8010E94CD02882309F4ECC1C93C68
:10072000FCE5DF0709F4C5C0C0F5C23C9CE5D9076C
:1007300009F486C0C0F4C531FCE5DF0778F4C230A7
:100740008CE5D80708F0ECC0C1159CE5D90709F481
:100750005CC0C130DC4509F460C0C0C1C631DC45B5
:1007600009F495C1BBC1C53C8CE5D80709F488C024
:1007700050F4C33CECE5DE0709F469C0C43CDC4539
:1007800009F46FC0ABC1F8018281C73CFCE5DF070B
:1007900009F485C008F47EC087C0C63DECE5DE07DD
:1007A000B0F4CE3CFCE5DF0708F0A5C1CB3C8CE5FE
:1007B000D80709F48CC008F483C0CC3CECE5DE0714
:1007C00009F48DC0CD3CDC4509F491C087C1C83D1A
:1007D0008CE5D80709F440C150F4C63DECE5DE07CE
:1007E00009F4F0C0C73DDC4509F40FC177C1CC3D29
:1007F0008CE5D80709F48BC0CD3D9CE5D907C1F045
:10080000CB3DDC4509F06AC17BC0F80182818823B9
:1008100009F471C10E944D036EC1F80182818823E1
:1008200009F469C18091E80181608093E80163C1A6
:10083000F8018281882309F45EC10E94A91A5BC174
:10084000F8018281811157C10E945E0C1FC0F8011E
:100850008281882309F44FC10E94F619827251F0F7
:100860000CC0F8018281882309F445C10E94F61961
:10087000827219F00E94410C09C00E944F0C06C000
:10088000F8018281811137C10E946B0B81E0809356
:100890005D0131C181112FC10E948F0BF7CF8111F2
:1008A0002AC10E94AF0BF2CF811125C10E94CF0B4C
:1008B000EDCFF801828181111EC10E94EF0BE6CFBE
:1008C000F8018281811117C10E940F0CDFCFF8015E
:1008D0008281882309F40FC10E94970A0CC1F80194
:1008E0008281882309F407C10E94AC0A04C1F8017F
:1008F0008281882309F4FFC081E00E94520CC6CF98
:10090000F8018281882309F4F6C080E006C0F8016E
:100910008281882309F4EFC082E00E943C23EBC06F
:10092000F8018281882309F4DEC00E94321A811105
:1009300002C00E94A91A0E94451A90E090933102C9
:1009400080933002FE01E350FC45E231F10530F4C2
:10095000EA5AFF4F809130020C945F288091300258
:10096000816027C0826025C0846023C0806121C06F
:1009700080621FC080641DC080681BC08460886066
:1009800018C08E7F16C08D7F14C08B7F12C08F7EE3
:1009900010C08F7D0EC08F7B0CC08F770AC08B7FFD
:1009A000877F07C087FB222720F991E0922790FBE1
:1009B00087F980933002809130020E94491A0E9488
:1009C000F11399C0F8018281882351F010923B0104
:1009D0000E94731B909338018093370182E022C0FC
:1009E00080913B0181110FC08091370190913801B6
:1009F0000E947F1B883C910530F486E20E94680FBC
:100A000086E20E94A11082E024C0F801828188233E
:100A100061F010923C010E94731B90933A01809305
:100A2000390180E20E94091166C080913C01811168
:100A30000FC08091390190913A010E947F1B883C40
:100A4000910530F487E20E94680F87E20E94A110AE
:100A500080E20E9410114FC0F80182818111D9CF2C
:100A600080913C018111F4CF8091390190913A013C
:100A70000E947F1B883C910558F780E20E9410116C
:100A800088E20E94680F88E20E94A11034C00E9490
:100A9000F619282FF80182814091090150910A012D
:100AA000882379F02A7A91E009F490E09093360156
:100AB000911102C069E201C065E3CA010E94DD1A1A
:100AC0000AC080913601811102C069E201C065E36C
:100AD000CA010E94DF1A0E94C3190DC081E08093F1
:100AE0003B0180933C01C801DF91CF911F910F9191
:100AF000FF900C94C90280E0DF91CF911F910F917C
:100B0000FF90089580E090E00895089596E0799F21
:100B1000F00111249CE3899FE00DF11D1124E60FE3
:100B2000F11DEE0FFF1FE65BFE4F85919491089536
:100B3000880F991FFC01EE54FD4F85919491089503
:100B4000CF93DF930E9486050E949B07EC018115DD
:100B500021E5920708F042C0811530E5930708F0BF
:100B600029C1883E910500F5803E910508F0DFC15E
:100B7000883A910570F4853A910508F0A0C081305B
:100B8000910509F4D4C108F485C1049708F0CFC1D8
:100B900081C18F3B910508F49DC0803C910508F40C
:100BA00079C1805C9109F6C0811540E3940780F417
:100BB000811550E2950708F0ECC0803F910508F4DC
:100BC00069C18F3F910511F008F0B1C1D065AFC187
:100BD000811560E4960708F0EAC0E0C0C11589E518
:100BE000D80740F5C11528E5D20708F030C1C11576
:100BF00034E5D30778F4C11543E5D40708F00CC1F8
:100C0000C11552E5D50708F0F1C0DC2FCC27C16F24
:100C1000D06A8DC1C11565E5D60708F413C1C115A9
:100C200086E5D80708F036C1CF71DD27DC2FCC2749
:100C3000D0627DC1CD3B2CE5D20709F419C1D8F4AF
:100C4000CB3B4CE5D40709F407C108F00BC1C11533
:100C50006AE5D60708F01EC18C2F8F70806E90E079
:100C6000906A24E0D695C7952A95E1F7CF709C014C
:100C70003C2BE9015CC1C03C8CE5D80709F404C1F8
:100C800078F4CE3B3CE5D30709F4F8C0CF3BDC4514
:100C900009F000C181E080935C01C0E0D2ED47C162
:100CA000CE0190568115904208F0F4C08D2F8F71BF
:100CB0000E941808DD27D0628F71D82B38C1853A81
:100CC000910509F4EAC0863A910509F0E9C0C2E845
:100CD000D0E42DC1883A910509F4E5C0893A91051F
:100CE00009F4E4C08A3A910509F4E3C08B3A91050E
:100CF00009F4E2C08C3A910509F4E1C08B3B9105FF
:100D000009F4E0C08C3B910509F4DFC08D3A9105F0
:100D100009F4DEC0803B910509F4DDC08E3A9105EF
:100D200009F4DCC08F3A910509F4DBC0813B9105E1
:100D300009F4DAC0823B910509F4D9C0833B9105DF
:100D400009F4D8C0843B910509F4D7C0853B9105CF
:100D500009F4D6C0863B910509F4D5C0873B9105BF
:100D600009F4D4C0883B910509F4D3C0893B9105AF
:100D700009F4D2C08D3B910509F4D1C08E3B910599
:100D800009F4D0C08A3B910509F4CFC0C0E0D4E497
:100D9000CEC09F700E949805EC01C9C09927D3FF6F
:100DA00003C0EC01D86CC3C0EC01D06CC0C0DF70D4
:100DB000D06ABDC0282F237081E090E002C0880F68
:100DC000991F2A95E2F79C689E0174E03695279555
:100DD0007A95E1F72370922BCF70C695C69560E2A5
:100DE000C69FE0011124C82BD92BA1C02C2F26951A
:100DF000269580E2289F90011124C370DD2781E0B1
:100E000090E0AC0102C0440F551FCA95E2F7EA0119
:100E1000C22BD32BDC688BC02C2F2695269580E225
:100E2000289F90011124C370DD2781E090E0AC0180
:100E300002C0440F551FCA95E2F7EA01C22BD32B1B
:100E4000DA6875C0DC2FCC27C46FD06A70C0DC2F85
:100E5000CC27C06FD06A6BC081E080935C01C0E09A
:100E6000D4ED65C081E080935C01C0E0D5ED5FC04A
:100E700081E080935C01C0E0D1ED59C081E08093B6
:100E80005C01C0E0D0ED53C081E080935C01C0E024
:100E9000D3ED4DC0C0E0D0E04AC0C1E8D0E447C0C7
:100EA000C3E8D0E444C0C2EED4E441C0C9EED4E407
:100EB0003EC0CAEED4E43BC0C5EBD4E438C0C6EBB8
:100EC000D4E435C0C3EBD4E432C0C4EBD4E42FC0C7
:100ED000C7EBD4E42CC0CCECD4E429C0CDECD4E4F2
:100EE00026C0C3E8D5E423C0CAE8D5E420C0C2E9DF
:100EF000D5E41DC0C4E9D5E41AC0C1E2D6E417C0E8
:100F0000C3E2D6E414C0C4E2D6E411C0C5E2D6E41C
:100F10000EC0C6E2D6E40BC0C7E2D6E408C0CFE6F6
:100F2000D4E405C0C0E7D4E402C0CAE2D6E4CE01EE
:100F3000DF91CF9108958238910549F1B0F4813362
:100F4000910509F458C048F48932910509F44EC05E
:100F50008A32910509F454C008958533910509F446
:100F600040C08933910599F00895833E910529F198
:100F700038F4803E910591F0823E9105A1F00895EC
:100F8000863E9105F9F0873E910531F10895209153
:100F9000300220FD3AC021FD38C008958091300212
:100FA00080FD35C032C08091300282FF32C0809116
:100FB000300284FD30C083EE39C08091300282FD62
:100FC00028C0F5CF8091300283FF27C08091300286
:100FD00084FD21C087EE2AC08091300283FD1DC0B0
:100FE000F5CF8091300285FD1AC01BC08091300280
:100FF00085FD17C014C08091300286FD14C015C055
:101000008091300286FD11C00EC080EE0FC089E3D2
:101010000DC082EE0BC080E009C086EE07C089E2F9
:1010200005C085E303C08AE201C081E390E0089532
:101030009091300292FF0DC0282F2871283019F4AA
:10104000877F846006C0282F2471243011F48B7FA1
:10105000886093FF0DC0282F2871283119F4877EEE
:10106000846106C0282F2471243111F48B7E88619D
:1010700094FD877E0895089508950C943C08089582
:101080008091E801836088608093E8018091080185
:10109000A2E2B1E041E050E025E02A0F8D91E82F77
:1010A000E295EF70F0E031A18F70BA0102C0660FD7
:1010B000771F8A95E2F7CB01962F9095932391A302
:1010C00092A1892B82A32A13E9CFACE1B1E041E0E0
:1010D00050E026E02A0F8D91E82FE295EF70F0E0C6
:1010E00031A18F70BA0102C0660F771F8A95E2F7AF
:1010F000CB01962F9095932391A392A1892B82A344
:101100002A13E9CFAFE4B1E0E4E4F1E08AE08E0F26
:1011100011921D928E13FCCF0C943D032F923F929F
:101120005F926F927F928F929F92AF92BF92CF9277
:10113000DF92EF92FF920F931F93CF93DF938091F3
:101140000801811104C045E0C42ED12C02C0C12C7D
:10115000D12CA601415B5E4F7A01EA0102E211E067
:10116000AA24A394B12C7724739435E0632E600EE7
:10117000BE0188801882D8018D918D01E82FE295FB
:10118000EF70F0E022A18F70A50102C0440F551F3F
:101190008A95E2F7CA01942E9094292122A321A1D5
:1011A000242B21A350EA5A95F1F79CE1292E91E0D6
:1011B000392E40E050E0D1015D901D01252D229592
:1011C0002F7030E0D90190962C9130E0B52DBF7092
:1011D00002C035952795BA95E2F720FD07C0950125
:1011E000042E01C0220F0A94EAF702C020E030E08A
:1011F0003881232B28834F5F5F4F46305105D9F646
:1012000091A1992291A292A1892B82A32196FB01FF
:101210008081881641F0709259010E94731B90934F
:101220005B0180935A016012A3CF809159018823FA
:10123000D1F080915A0190915B010E947F1B06972B
:1012400090F080E090E0FC01EC0DFD1DEC5BFE4FAA
:10125000D701A80FB91F2C912083019685309105E5
:1012600091F71092590181E0DF91CF911F910F9179
:10127000FF90EF90DF90CF90BF90AF909F908F90B6
:101280007F906F905F903F902F90089561E070E0A5
:1012900080E091E00C94260D61E070E080E091E048
:1012A0000C942F0DCF93DF9380910801811103C01F
:1012B000C0E0D0E002C0C5E0D0E00E94D20DAC0199
:1012C000892BD9F420E030E0F901E15CFE4F808108
:1012D000F901EC0FFD1FEC5BFE4F80832F5F3F4F4A
:1012E0002530310589F79091320290FF02C0969522
:1012F00001C090E090933E0102C041E050E0CA017D
:10130000DF91CF910895CF930E948E08C82F0E943D
:101310005209892BF1F090914E019F5F90934E01FD
:101320009630C8F080910801811103C040E050E080
:1013300002C045E050E020E030E0F901E40FF51F85
:10134000EC5BFE4F10822F5F3F4F25303105A9F730
:1013500002C010924E010E94CF028C2FCF910895AF
:101360000E948E0880910801811103C025E030E0C1
:1013700002C020E030E080E090E0FC01E20FF31FCB
:10138000EC5BFE4F4081FC01E15CFE4F4083019627
:101390008530910591F70C943F08E82FF0E0EC5B65
:1013A000FE4F808108950895E8EDF0E0808180612E
:1013B00080838AE18A95F1F700C08091D90081701D
:1013C00008950E94D409809308010E94D4098823BB
:1013D00031F00E94460981E080935C0104C00E94C4
:1013E0006A1B0E944C09789408950E9440080E944C
:1013F000680C0E94B00980913E010E94D102F9CF91
:101400000E94E1090E94D409811102C00E94F509DD
:101410000895EF92FF920F931F93CF93DF93E9010B
:10142000662309F44BC0242F30E0EFEFF0E0E61B19
:10143000F109B901E69F9001E79F300DF69F300D4D
:101440001124232F8B01031B11095CE3E52EF12CE2
:10145000B7010E941528FB01BC01069FC001079F30
:10146000900D169F900D1124B7010E941528E230AF
:10147000F105B1F040F4309779F0319711F5832FF1
:10148000242F461B21C0E430F105A1F068F0359708
:10149000C1F4842F861B18C0832F262F230F14C05E
:1014A000862F830FE42F03C0E42FE61B842F432FE6
:1014B0002E2F0AC0842F462F430F06C0842F242FBF
:1014C00003C080E020E040E0E42FF0E0EE54FD4F68
:1014D0004491E22FF0E0EE54FD4F9491E82FF0E0BC
:1014E000EE54FD4FE49149839883EA83DF91CF91D5
:1014F0001F910F91FF90EF90089588E090E00C9479
:101500008728AB01BC0188E090E00C94A528E1E0BD
:10151000F2E083E08083109202028FEF8283838364
:10152000148260817181828193810C94810A8091FF
:10153000050290E001968430910514F083E090E07C
:101540008093050260910102709102028091030272
:10155000909104020C94810A8091050290E0019719
:1015600097FF02C080E090E08430910514F083E0A2
:1015700090E08093050260910102709102028091D7
:101580000302909104020C94810A8091010280FF71
:1015900006C06CE070E086E092E00C94C80C80E03D
:1015A00090E0FC01EA5FFD4F1182108212820396E7
:1015B00084329105B1F7EDCFE1E0F2E080818E7FDA
:1015C000808360817181828193810E94810A2FEFE3
:1015D00080E792E0215080409040E1F700C0000099
:1015E0000C94C50A9091010290FF0FC020E030E0FA
:1015F000F901EA5FFD4F8183608342832D5F3F4F96
:1016000024323105A9F70C94C50A0895DF92EF92B0
:10161000FF920F931F93CF93DF9300D01F92CDB70C
:10162000DEB73091010230FF31C0D22E042FF62EEA
:10163000E92E182F3E77323051F49E012F5F3F4F35
:101640000E94090A4B8169818A810E94F20A809175
:10165000010210FB87F98093010216958091020226
:101660008078182BE0FA17F910930202F092030227
:1016700000930402DD2051F060910102709102029A
:1016800080910302909104020E94810A0F900F90B2
:101690000F90DF91CF911F910F91FF90EF90DF900E
:1016A0000895282FE1E0F2E09081991F9927991F72
:1016B00030910202832F880F482F492B37FB552783
:1016C00050F9CA010A9668E671E00E942928438110
:1016D00062810C94060B81E00C94510B282F9091A1
:1016E0000102991F9927991F30910202832F880FB9
:1016F000482F492B37FB552750F9CA014A3051056D
:101700001CF4825A9E4F01C00A9768E671E00E945D
:10171000292840910402609103020C94060B81E099
:101720000C946E0B60910302262F30E02F3E3105A2
:1017300014F46F5E01C06FEF30910102331F332745
:10174000331F90910202592F550F97FB992790F95B
:10175000282F40910402852F832B0C94060B81E0E7
:101760000C94920B60910302262F30E02131310559
:1017700014F0615101C060E030910102331F332742
:10178000331F90910202592F550F97FB992790F91B
:10179000282F40910402852F832B0C94060B81E0A7
:1017A0000C94B20B40910402242F30E02F3E3105FF
:1017B00014F44F5E01C04FEF30910102331F332705
:1017C000331F90910202592F550F97FB992790F9DB
:1017D000282F60910302852F832B0C94060B81E048
:1017E0000C94D20B40910402242F30E021313105BA
:1017F00014F0415101C040E030910102331F332702
:10180000331F90910202592F550F97FB992790F99A
:10181000282F60910302852F832B0C94060B81E007
:101820000C94F20B20E00C94060B8091010280FFD7
:1018300023C08178826080930102662351F0609119
:1018400001027091020280910302909104020E94B1
:10185000810A80910102881F8827881F90910202C7
:10186000292F220F97FB992790F94091040260914C
:101870000302822B0C94120C0895682F81E00C94C3
:10188000150C81E00C943D0C682F90910102969507
:101890009F738FEF890F09F481E00C94150C81E0A0
:1018A0000C94440C61E00C94150CE1E0F2E08081B2
:1018B0008160808386958F730C94520C8091010215
:1018C00080FD0C94DC0A0C94550C60E00C94150C13
:1018D0008091E80181608093E8010E94321A8111B1
:1018E00004C00E94A91A0E94870A0E947D0A609380
:1018F00001027093020280930302909304026E77B8
:1019000061F40E94870A0E947D0A6093010270932D
:10191000020280930302909304028091010280FFEF
:1019200004C086958F730C94650C08952BB1342FE9
:10193000309523233BB1432B3FB7F894FC01680F4C
:10194000791FE617F70789F0819198E04BB90000FD
:1019500000C087FF2BB9880F000000C000C000C086
:101960002BB900C09A9591F7ECCF3FBF08952AB1EB
:10197000242B2AB99B01220F331F620F731F0E9471
:10198000960C87EC90E00197F1F700C000000895F5
:1019900048E00C94B70C8EE1489B02C08150E1F7FF
:1019A000489BFECF0895589880E28A95F1F7589A9F
:1019B0000895FC013AE03A95F1F798E020E080E0E4
:1019C00031E040E14A95F1F7880F489B02C0816001
:1019D000232700C0000040E14A95F1F7915089F7B4
:1019E00090E19A95F1F799B100C0000030E13A9585
:1019F000F1F7917092272081920F90830895FF92C2
:101A00000F931F93CF93DF9300D0CDB7DEB719822A
:101A1000F82E8C01802F8F19861760F46A830E943C
:101A2000CB0CCE0101960E94D90CF80181938F0155
:101A30006A81F0CF81E09981911180E00F900F9041
:101A4000DF91CF911F910F91FF90089590936001C6
:101A500080935F0160935E01509A589A0895909325
:101A6000600180935F0160935E015098589AE89AF4
:101A7000E9E6F0E080818C7F80830895615091E0F9
:101A800001C0990F6A95EAF720E031E0992361F0EF
:101A9000492F482319F0589A232701C0589840E24B
:101AA0004A95F1F79695F2CF222311F0589A01C08A
:101AB000589880E28A95F1F758980895EF92FF922E
:101AC0000F931F93CF93DF931F92CDB7DEB7162FDF
:101AD000082F7C018E2D801B811758F4F70181910E
:101AE0007F0189830E94D30C68E089810E943E0DAA
:101AF000F1CF0F90DF91CF911F910F91FF90EF9059
:101B000008951F920F920FB60F9211242F933F93B7
:101B10004F935F936F937F938F939F93AF93BF93F5
:101B2000CF93DF93EF93FF935898509AC0915F0142
:101B3000D09160016D81662321F08E819F810E948A
:101B40005E0D0E94D30C80E18A95F1F75898509869
:101B5000589A80E18A95F1F76A81662351F08B816A
:101B60009C810E94FF0CE881F981811104C082E010
:101B700003C0E881F98188E080830E94CB0CFF914B
:101B8000EF91DF91CF91BF91AF919F918F917F9115
:101B90006F915F914F913F912F910F900FBE0F90DA
:101BA0001F901895CF93DF93C0915F01D091600192
:101BB000F894509A589885E08A95F1F7000050986B
:101BC000589A80E28A95F1F7489B0AC0509A589A31
:101BD000E881F98181E08083789481E090E02CC0F5
:101BE0006D81662381F08E819F810E94FF0C81119F
:101BF0000AC0509A589AE881F98182E080837894EB
:101C000082E090E019C00E94CB0C80E28A95F1F747
:101C10005898509A80E18A95F1F76A81662321F0FD
:101C20008B819C810E945E0D0E94D30CE881F9811A
:101C30001082789480E090E0DF91CF9108959093A6
:101C40006601809365010895E0916501F091660158
:101C5000309721F00190F081E02D099480E0089503
:101C6000E0916501F0916601309721F00280F381E7
:101C7000E02D09940895E0916501F0916601309797
:101C800039F022E0DC012C930480F581E02D0994E9
:101C9000089520916301309164018217930771F0D8
:101CA0009093640180936301E0916501F091660176
:101CB000309721F00680F781E02D09940895209156
:101CC0006101309162018217930771F09093620174
:101CD00080936101E0916501F0916601309721F0F8
:101CE0000084F185E02D0994089585B7806885BF4B
:101CF00085B7806885BF08950E94750E0C94000A10
:101D000081E008950E946A1B0E9440080E94E01B27
:101D10000E942D200C94680CCF92DF92EF92FF92DC
:101D20000F931F93CF93DF93CDB7DEB72B970FB6EB
:101D3000F894DEBF0FBECDBF0E9483090E94800EC3
:101D4000811111C08FEF89838A831B820E94731BCC
:101D50008160782F9D838C8349815A816B818D812D
:101D60000E94340F56C088E6C82E81E0D82E00E0CD
:101D700010E0E02E802F0E94CD09F60141916F0105
:101D8000F42EF82631F40F5F1F4F0A30110589F742
:101D9000D9CF9091E80191FF04C08B870E94D309AD
:101DA0008B8520E030E04F2D50E0922FBA01022EBB
:101DB00002C0759567950A94E2F760FF24C02E83F0
:101DC000EF8221E030E0690102C0CC0CDD1C9A9565
:101DD000E2F790E08C219D21892B09F420E02887EF
:101DE0000E94731B8160782F9A8789874E815F815B
:101DF00068858A850E94340FF801E859FE4F80817A
:101E0000C826C08206C02F5F3F4F2630310569F6D5
:101E1000BACF0E94731D109167010E94240E1817FB
:101E2000A1F00E94240E809367012B960FB6F894C0
:101E3000DEBF0FBECDBFDF91CF911F910F91FF90FD
:101E4000EF90DF90CF900C944A032B960FB6F89446
:101E5000DEBF0FBECDBFDF91CF911F910F91FF90DD
:101E6000EF90DF90CF900895CF93DF93CDB7DEB79B
:101E70002B970FB6F894DEBF0FBECDBF4F835887A8
:101E800069877A878B87DE01119686E0FD011192C2
:101E90008A95E9F785E0FE01379601900D928A95C3
:101EA000E1F749815A816B817C818D819E810E94FD
:101EB00098162B960FB6F894DEBF0FBECDBFDF91FC
:101EC000CF910895FC01808191810E946419089549
:101ED000CF93DF931F92CDB7DEB7882309F42DC1CE
:101EE000682F8238C1F40E94240E81FD26C169E367
:101EF0008091090190910A010E94DD1A0E94C31984
:101F00002FEF81EE94E0215080409040E1F700C037
:101F1000000069E319C0833811F50E94240E80FD8A
:101F20000CC163E58091090190910A010E94DD1ABC
:101F30000E94C3192FEF81EE94E021508040904021
:101F4000E1F700C0000063E58091090190910A016A
:101F50000E94DF1A0F90DF91CF910C94C31984383F
:101F6000C1F40E94240E82FDE8C067E4809109015B
:101F700090910A010E94DD1A0E94C3192FEF81EE91
:101F800094E0215080409040E1F700C0000067E4F9
:101F9000DBCF8CEF860F813A70F4862F69830E9425
:101FA000961F69818111C9C08091090190910A0130
:101FB0000E94DD1ACFCF80E2860F883048F4677028
:101FC00081E001C0880F6A95EAF70E94F919C2CF33
:101FD0008BE5860F833088F4653A29F0663A31F054
:101FE00083E890E005C081E890E002C082E890E0DC
:101FF0000F90DF91CF910C94490E88E5860F8731C1
:1020000008F091C0683A09F445C0693A09F445C03E
:102010006A3A09F445C06B3A09F445C06C3A09F4D0
:1020200045C06B3B09F445C06C3B09F445C06D3AB3
:1020300009F445C0603B09F445C06E3A09F445C057
:102040006F3A09F445C0613B09F445C0623B09F4AD
:1020500045C0633B09F445C0643B09F445C0653B9A
:1020600009F445C0663B09F445C0673B09F445C027
:10207000683B09F445C0693B09F445C06D3B09F470
:1020800045C06E3B09F445C06A3B09F445C080E099
:1020900090E044C082EE90E041C089EE90E03EC006
:1020A0008AEE90E03BC085EB90E038C086EB90E094
:1020B00035C083EB90E032C084EB90E02FC087EB1B
:1020C00090E02CC08CEC90E029C08DEC90E026C014
:1020D00083E891E023C08AE891E020C082E991E0A2
:1020E0001DC084E991E01AC081E292E017C083E24A
:1020F00092E014C084E292E011C085E292E00EC04A
:1021000086E292E00BC087E292E008C08FE690E0A2
:1021100005C080E790E002C08AE292E00F90DF9174
:10212000CF910C945F0E603F40F0862F0E947B1C85
:102130000F90DF91CF910C94681D0F90DF91CF919C
:102140000895882309F464C0823879F40E94240E2B
:1021500081FF5EC069E38091090190910A010E94AC
:10216000DD1A0E94C31969E310C08338B1F40E94DC
:10217000240E80FF4DC063E58091090190910A0112
:102180000E94DD1A0E94C31963E5809109019091B4
:102190000A010E94DF1A0C94C319843879F40E9452
:1021A000240E82FF35C067E48091090190910A01F5
:1021B0000E94DD1A0E94C31967E4E7CF9CEF980FD5
:1021C000913A10F4682FE1CF90E2980F983050F4D4
:1021D000877091E001C0990F8A95EAF7892F0E94D4
:1021E000FF19D9CF9BE5980F933020F480E090E061
:1021F0000C94490E98E5980F973120F480E090E018
:102200000C945F0E803F20F00E94E31C0C94681D2C
:102210000895882321F00E94F9190C94C319089598
:10222000882321F00E94FF190C94C31908954F923E
:102230005F926F927F92BF92CF92DF92EF92FF9266
:102240000F931F93CF93DF937C01D62FC72FFC01F1
:10225000058102950F70128111110E94161A0E94B9
:10226000BC19882379F0112369F080E28D0F883042
:1022700048F082E00E94A5190E94BC1991E0B82E96
:10228000B92601C0B12CCC2EC2948FE0C822D12C2B
:10229000F601E859FF4F0C945F288C2F807FCF7098
:1022A000882311F0C295C07F112399F0CC2309F443
:1022B000D0C180E28D0F883010F0D11104C08C2F76
:1022C0000E94F91903C08C2F0E94091A0E94C31999
:1022D000C0C18D2F0E94A110CC2309F403C280E25B
:1022E0008D0F883010F0D11104C08C2F0E94FF197F
:1022F00003C08C2F0E940F1A0E94C319F3C18C2FA8
:10230000807FCF70803211F0C295C07FDD2319F03D
:10231000D130C9F022C0112371F0002341F0013007
:1023200031F40E942F1A8C2B0E94291ADBC10E94C3
:102330002F1A8C2B46C1002319F0013009F4D2C1A9
:102340000E942C1A18C0112321F0063008F0CAC1CF
:102350000EC0053008F0C6C10EC0112351F0002395
:1023600031F0F701858180FF74C18F7085838C2FD8
:1023700028C101117FC18C2F2AC18C2F869586958B
:10238000837090E0009719F0019761F0ABC11123C1
:1023900021F08D2F9C2F937002C080E090E00E946E
:1023A000490EB0C1112321F08D2F9C2F937002C0D4
:1023B00080E090E00E945F0EA5C11123F9F0D53FA7
:1023C00051F0D63F71F0D43FA9F480912A02909148
:1023D0002B0281600BC080912A0290912B028260B7
:1023E00005C080912A0290912B02846090932B0269
:1023F00080932A028D2F0E947B1C1EC0D53F51F076
:10240000D63F71F0D43FA9F480912A0290912B021B
:102410008E7F0BC080912A0290912B028D7F05C088
:1024200080912A0290912B028B7F90932B028093B4
:102430002A028D2F0E94E31C0E94681D63C18C2F0D
:10244000837009F050C0111159C18D2F8295869566
:102450008770880F880F9D2F9F70492E512C612CFB
:10246000712C082E04C0440C551C661C771C0A9461
:10247000D2F7D4FF14C00FE010E020E030E0B90143
:10248000A80104C0440F551F661F771F8A95D2F715
:10249000CB01BA01609570958095909503C060E07E
:1024A00070E0CB01C695C695C370D0E0C230D105AF
:1024B00061F0C330D10581F06429752986299729F7
:1024C000219771F00E94DD1719C1642975298629A9
:1024D00097290E94EF1712C10E94DD17C301B201B4
:1024E0000E94CB170BC1112319F08C2F817001C0F2
:1024F0008695882309F402C18D2F82958695877071
:10250000880F880F9D2F9F70492E512C612C712CA4
:10251000082E04C0440C551C661C771C0A94D2F784
:10252000D4FF14C00FE010E020E030E0B901A801B2
:1025300004C0440F551F661F771F8A95D2F7CB0141
:10254000BA01609570958095909503C060E070E049
:10255000CB01C695C695C3704C2F50E04230510553
:1025600069F04330510589F0642975298629972936
:102570004130510571F00E94A318C0C0642975292B
:10258000862997290E94B518B9C00E94A318C301D3
:10259000B2010E949118B2C08D2F90E0FC01E05E64
:1025A000F109E531F10508F050C0E858FF4F0C94EF
:1025B0005F28DF708C2F8F71112331F00E942A1851
:1025C0008D2F0E9409118EC00E944B188D2F0E94E2
:1025D000101188C0112341F0053008F083C08C2F02
:1025E0008F710E9470187EC0063008F07BC0F7CF54
:1025F000112339F08C2F8F710E942A1873C0112378
:10260000C9F38C2F8F710E944B186CC0112329F0D5
:102610008C2F8F710E94151865C00E94101862C01F
:10262000112349F0CF718C2F0E942A1863E08C2F60
:102630000E949C1957C081E00E94A519023008F43D
:1026400051C082E00E94A5194DC0112331F0002332
:1026500089F28D2F0E94680F45C0002391F2D93373
:1026600049F45FEF67EE73E0515060407040E1F76E
:1026700000C000008D2F0E94A11034C04C2F4F705D
:102680006D2FC7010E9482050E943C173BC01111AB
:1026900039C0CF70D0E0C230D10599F03CF420971A
:1026A00069F02197F9F40E9467202CC0C430D1054D
:1026B00071F054F02597B1F480E00AC00E944A20DE
:1026C00021C00E94A6201EC00E94AD201BC085E034
:1026D0000E94D02017C04C2F4F706D2FC7010E9451
:1026E000850510C088E0C816D10441F05CF0EAE02E
:1026F000CE1AD108F2E0CF16D10420F40E94240EA5
:102700000E944A03BB20F1F00E94981980FD1AC074
:10271000F70112820E9492190E942A18C7010E9492
:10272000B0130E949219DF91CF911F910F91FF90EA
:10273000EF90DF90CF90BF907F906F905F904F9021
:102740000C944B18DF91CF911F910F91FF90EF9058
:10275000DF90CF90BF907F906F905F904F900895E3
:102760000F931F93CF93DF93EC01888199812B8185
:102770003C81232BB9F09F3F11F48F3F99F0CE019C
:102780000E946203882371F0688179818A810E94A6
:102790006F198C010E94C7180E94C817B801CE019A
:1027A0000E941711DF91CF911F910F9108950E9400
:1027B000161A0E94261A0E94C3190E940E1E0E9419
:1027C000681D80E090E00E94490E80E090E00C944B
:1027D0005F0E8091090190910A010E94E11A0C9408
:1027E000D7130E94061A0C94E9130E946419E92F6A
:1027F000E295EF70F0E03297EE30F105B0F4E35778
:10280000FF4F0C945F28803F91F018F4803E68F4ED
:102810000EC0843F51F40BC0803E48F0813F29F444
:1028200006C093FB882780F9089580E0089581E031
:102830000895CF93DF9300D000D01F92CDB7DEB7BD
:102840000F900F900F900F900F90DF91CF91089500
:10285000CF93DF9300D000D000D0CDB7DEB726965F
:102860000FB6F894DEBF0FBECDBFDF91CF910895B4
:102870001F93CF93DF93C091730116E08091740191
:10288000C81799F0D0E01C9FF0011D9FF00D112496
:10289000EB58FE4F40815181628173818481958123
:1028A0000E9428142196C770E9CFDF91CF911F9124
:1028B00008954091A5015091A6016091A7017091E2
:1028C000A8018091A9019091AA010C9428148091EB
:1028D000AA0182958F7009F054C08091A7018823C6
:1028E00009F44FC080917301A09174016091A5011A
:1028F0007091A6014091A8015091A901B6E08A17F4
:1029000009F43FC090E041155105C1F17F3F11F43A
:102910006F3FA1F1B89FF001B99FF00D1124EB5862
:10292000FE4F218172132AC02081621327C02281A9
:10293000211124C0238134812417350710F421503C
:102940003109241B350B283C3105C0F42091AA0124
:102950002F7020612093AA0126E0289FF001299F73
:10296000F00D1124E658FE4F80818F7080618083C6
:1029700085EA91E00E94B0130C9438140196877098
:10298000BECF0895CF92DF92EF92FF920F931F93E5
:10299000CF93DF93CDB7DEB762970FB6F894DEBF63
:1029A0000FBECDBF8C0185E0F801DE011D960190C0
:1029B0000D928A95E1F7D8014C9111965C9111978F
:1029C00012966C9112971396CD90DC9014973091DB
:1029D000A5017091A6018091A8019091A90100978D
:1029E00009F46BC17F3F19F43F3F09F466C1E090E1
:1029F000A701EE2009F4C0C02091AA01C816D9068B
:102A000028F0F601E81BF90BCF0104C080959095E2
:102A10008C0D9D1DFF24F394883C910578F0F12CDA
:102A2000207F09F0C6C07C2DD98AC88A89890E9476
:102A3000191485EA91E00E94B013B1C0822F807F03
:102A400009F046C0751314C0341312C0611110C0D0
:102A50002F7020612093AA010E94591485EA91E009
:102A60000E94B0138091AA01D80115968C932EC0B4
:102A7000CD2819F15F3F11F44F3FF9F0F62E6111A7
:102A80001CC0809173012091740136E0821709F413
:102A90005AC090E0389FF001399FF00D1124EB5897
:102AA000FE4F7181571306C07081471303C07281B6
:102AB000711103C001968770E9CFF62E662309F4E1
:102AC00027C18091AA0181608093AA01F12C20C1C5
:102AD000751308C0341306C0611104C08091AA01A7
:102AE000D801C3C04D875E878D859E856A8B0E9405
:102AF000F5136A898823E1F16623D1F12091AA01B7
:102B0000822F82958F7090E0029774F08091A501DA
:102B10009091A60198878F831986DB86CA862C87B9
:102B2000CE0107960E94B01386E0F801A5EAB1E055
:102B300001900D928A95E1F70E9467140E94591442
:102B4000FF24F394E5C04D875E878D859E850E94A6
:102B50006419292F22952F7030E0223031050CF0B6
:102B6000CBC09F7009F0C5C0805E883008F4D0C02B
:102B7000C8010E94B013E4CFC816D90608F453C0A8
:102B8000F601E81BF90BCF01883C910508F450C011
:102B9000F12C7C2DD98AC88A89890E941914E5EA0A
:102BA000F1E086E0DF011D928A95E9F70E94591451
:102BB000AFC0751314C0341312C0611110C08091DE
:102BC000AA01F8018583C8010E94B01386E0E5EAF6
:102BD000F1E0DF011D928A95E9F7FE2C99C04D873F
:102BE0005E878D859E856A8B0E94F5136A8988238E
:102BF00009F4BECF662309F4BBCF2091AA01822F2E
:102C000082958F7090E002970CF48ECF8091A50191
:102C10009091A6019A8389831B82DD82CC822E83C8
:102C2000CE0101967FCF809590958C0D9D1DACCFE8
:102C3000F62E662309F49CCF75132EC034132CC0D6
:102C40002091AA0120FD1FC0822F82958F70D9F09C
:102C5000D80115962C9315978F3049F08F5F982FD8
:102C60009295907F822F8F70892B15968C93C80137
:102C70000E94B01386E0F801A5EAB1E001900D9240
:102C80008A95E1F793CF86E0F801A5EAB1E00190DB
:102C90000D928A95E1F73CC04D875E878D859E85B4
:102CA0000E94F513811140CF8091AA018160809329
:102CB000AA01C8010E94B0132BC0662309F458CFA3
:102CC0004D875E878D859E850E94F513F82E88239B
:102CD00009F44ECF86E0F801A5EAB1E001900D922B
:102CE0008A95E1F785EA91E00E94620F0E946714DD
:102CF0005DCF811139CF0CC0243031050CF038CFB5
:102D00009F7009F431CFF8019581907F09F02CCFA5
:102D10008F2D62960FB6F894DEBF0FBECDBFDF9148
:102D2000CF911F910F91FF90EF90DF90CF9008957A
:102D30001F93CF93DF93CDB7DEB72C970FB6F894E0
:102D4000DEBF0FBECDBF4F83588769877A878B87D9
:102D50009C87CE0107960E94C214882369F08F8158
:102D600098852A853B85232BF1F19F3F09F063C0AD
:102D70008F3F09F060C037C086E0FE013796DE0164
:102D8000119601900D928A95E1F76F817885EA8519
:102D9000FB85309741F17F3F11F46F3F21F1209186
:102DA000740130E0C9010196877099274091730141
:102DB00050E08417950709F447C069837A83FD833F
:102DC000EC8396E0929FD001939FB00D1124AB58F5
:102DD000BE4FFE01319601900D929A95E1F78093D6
:102DE00074010E94381416E080917301909174016F
:102DF0008917C1F1189FC00111248B589E4F0E9462
:102E0000C214882379F1E09173011E9FF00111240F
:102E1000EB58FE4F4081518162817381848195819D
:102E20000E9428148091730190E001968770992781
:102E300080937301D9CF4F81588569857A858B85B9
:102E40009C850E942814CFCF0E94F1131092740128
:102E500010927301E5EAF1E086E0DF011D928A95A8
:102E6000E9F7C1CF2C960FB6F894DEBF0FBECDBFE9
:102E7000DF91CF911F910895EF92FF920F931F93CF
:102E8000CF93DF938C01892B09F46CC0F12CEE24D5
:102E9000E394E8012196F8018491843740F484306A
:102EA00008F051C0813081F0823019F15BC0853764
:102EB00009F444C0A8F19CE7980F903708F052C07D
:102EC0008F770E94A11041C00E5F1F4FFE01C49179
:102ED00080E28C0F883048F4C7708E2D01C0880FB7
:102EE000CA95EAF70E94191A14C08C2F0E94680F25
:102EF0002DC00E5F1F4FFE01C49180E28C0F883001
:102F000058F4C7708E2D01C0880FCA95EAF70E9449
:102F10001F1A0E94C3191AC08C2F0E94A11016C03C
:102F20000E5F1F4FFE01C491CC2381F08FE99FE01B
:102F30000197F1F700C00000C150F6CF0E5F1F4FA0
:102F4000FE01F49003C00E94680F8E018F2D88232C
:102F500009F49FCFEFE9FFE03197F1F700C00000DF
:102F60008150F5CFDF91CF911F910F91FF90EF909E
:102F7000089508950C94B9170E94BA176093D70169
:102F80007093D8018093D9019093DA010C94D713F0
:102F900008950C94BC170F931F930091D7011091C3
:102FA000D8012091D9013091DA01602B712B822B4D
:102FB000932B1F910F910C94BC170F931F930091AB
:102FC000D7011091D8012091D9013091DA01602305
:102FD0007123822393231F910F910C94BC170F939D
:102FE0001F930091D7011091D8012091D901309100
:102FF000DA0160277127822793271F910F910C9484
:10300000BC1708950C9401180E9402186093D30114
:103010007093D4018093D5019093D6010C94D7136B
:1030200060E070E0CB010C9404180F931F9341E013
:1030300050E060E070E08A019B0104C0000F111FA6
:10304000221F331F8A95D2F7C901B8011F910F9132
:103050000C9404180F931F9341E050E060E070E07F
:1030600004C0440F551F661F771F8A95D2F78091C1
:10307000D3019091D401A091D501B091D6018A01DC
:103080009B01082B192B2A2B3B2BC901B8011F913F
:103090000F910C9404180F931F9341E050E060E0EF
:1030A00070E004C0440F551F661F771F8A95D2F742
:1030B00040955095609570958091D3019091D40181
:1030C000A091D501B091D6018A019B010823192353
:1030D0002A233B23C901B8011F910F910C940418B6
:1030E0000F931F9341E050E060E070E004C0440F94
:1030F000551F661F771F8A95D2F78091D301909153
:10310000D401A091D501B091D6018A019B01082775
:1031100019272A273B27C901B8011F910F910C9449
:1031200004180F931F930091D3011091D4012091A3
:10313000D5013091D601602B712B822B932B1F91DF
:103140000F910C9404180F931F930091D3011091C9
:10315000D4012091D5013091D601602371238223BF
:1031600093231F910F910C9404180F931F930091B8
:10317000D3011091D4012091D5013091D60160275F
:103180007127822793271F910F910C94041808959B
:10319000292F220F920F990F890FA82FA695A69578
:1031A000A695877051E001C0550F8A95EAF785E032
:1031B000A89FD001112420E030E070E0F901EA0F6F
:1031C000FB1FE555FE4F4081CB01022E02C09695B4
:1031D00087950A94E2F78170992781958427852342
:1031E000842780832F5F3F4F2530310539F70895BD
:1031F000292F220F920F990F890F682F66956695D8
:103200006695982F977085E0689FB001112440E083
:1032100050E080E0FA01E60FF71FE555FE4F2081F0
:1032200030E0092E02C0369527950A94E2F7217006
:103230003327042E01C0220F0A94EAF7822B4F5F36
:103240005F4F4530510531F70895CF92DF92EF92ED
:10325000FF920F931F93CF93DF938C01C090D70100
:10326000D090D801E090D901F090DA018091D3019B
:103270009091D401A091D501B091D601C82AD92A44
:10328000EA2AFB2ACFE1D0E0D701C6010C2E04C008
:10329000B695A795979587950A94D2F780FF06C0B3
:1032A000B8018C2F0E94A005019721F4219760F7A7
:1032B00080E001C08C2FDF91CF911F910F91FF9083
:1032C000EF90DF90CF900895CF93DF93EC010E94B1
:1032D0002519BE010E94A005DF91CF9108951F938B
:1032E000CF93DF93EB0190917201992321F0CB01F1
:1032F0000E94641913C0882349F0CB010E9425194C
:10330000182F682FCE010E94C81804C0CB010E945C
:10331000F818182FBE01812F0E94A005DF91CF91D0
:103320001F9108958091DB01859585958595089578
:103330008091DB018770089598E0899F90011124A6
:10334000262B2093DB010C942A182091DB01809519
:1033500082238093DB01982F977069F430E0482F27
:10336000082E000C550B2417350729F085958595F7
:1033700085950C944B1808959091DB01977081E02E
:1033800009F480E00895E0910901F0910A0180912B
:10339000E7018083E0910901F0910A019081809119
:1033A000E601892B8083E0910901F0910A01908167
:1033B0008091E501892B80838091DC01882381F055
:1033C000E0910901F0910A019081892B808380911D
:1033D000090190910A010E94AB1A81111092DC013F
:1033E0008091090190910A010C94300E8091E701BF
:1033F00008959091E701892B8093E70108958095C6
:103400009091E70189238093E70108951092E701E5
:1034100008959091E601892B8093E60108958095A7
:103420009091E60189238093E60108951092E601C8
:1034300008959091E501892B8093E5010895809589
:103440009091E50189238093E50108951092E501AB
:1034500008958093DC0108951092DC010895809115
:10346000DC01089580E090E00E948D2821E08D3EEF
:103470009E4F09F020E0822F089582E090E00C94A6
:103480007F2883E090E00C947F2884E090E00C9407
:103490007F28682F84E090E00C94932886E090E0E9
:1034A0000C947F28682F86E090E00C949328AB0161
:1034B000BC018FE090E00C94A528AB01BC0183E136
:1034C00090E00C94A52860E070E0CB010C945D1AAC
:1034D00060E070E0CB010E94571A0C94631A6DEE05
:1034E0007EEF80E090E00E94B12860E082E090E012
:1034F0000E94932860E083E090E00E94932810925D
:10350000D7011092D8011092D9011092DA0160E02F
:1035100084E090E00E94932860E085E090E00E94C3
:10352000932860E086E090E00E9493286FEF87E0A8
:1035300090E00E94932840E050E0BA0188E090E0DB
:103540000E94A52860E08DE090E00E9493280C94F2
:10355000681A0C946F1AFC01329697E080E0915043
:1035600029F021912223D9F38F5FF9CF08959C018F
:10357000FC0132969FEF80E04191461789F09F3F12
:1035800019F4411101C0982F8F5F8630A9F79F3F32
:1035900039F0F901E90FF11D97FDFA95628308955D
:1035A0000895FC01329608962081261301C01082EE
:1035B0003196E817F907C1F708950C94B71A0C94DF
:1035C000D11A029626E0FC0111922A95E9F7089596
:1035D00008950C94E81A0E94E91A80913702843009
:1035E00061F11092E90120E488E190E00FB6F894CF
:1035F000A895809360000FBE2093600080E00E9439
:10360000D10280E00E944A030E94E91A83B7817FB9
:10361000846083BF83B7816083BF7894889583B7C4
:103620008E7F83BF0FB6F894A89580916000886163
:1036300080936000109260000FBE08950895089571
:10364000CF930E941E1B0E9483090E941F1BC0E093
:103650008C2F0E94CD09811104C0CF5FCA30C1F701
:1036600001C081E0CF91089508950C94341B0E940D
:10367000F1130E942D200E94240E0E944A030C94F4
:10368000351B1F920F920FB60F9211248F939F93A9
:10369000AF93BF938091E901811113C080912C02F7
:1036A00090912D02A0912E02B0912F024196A11D62
:1036B000B11D80932C0290932D02A0932E02B09303
:1036C0002F02BF91AF919F918F910F900FBE0F90DE
:1036D0001F90189582E084BD93E095BD9AEF97BD49
:1036E00080936E0008952FB7F89480912C029091EA
:1036F0002D02A0912E02B0912F022FBF0895CF92DC
:10370000DF92EF92FF920F931F932FB7F89440919F
:103710002C0250912D0260912E0270912F022FBF2A
:103720006A017B01EE24FF248C0120E030E0C0160A
:10373000D106E206F30610F4415051099A01281B04
:10374000390BC9011F910F91FF90EF90DF90CF903F
:10375000089578941F920F920FB60F9211248F93B1
:103760009F93AF93BF9380912C0290912D02A091D3
:103770002E02B0912F020196A11DB11D80932C0243
:1037800090932D02A0932E02B0932F02BF91AF9180
:103790009F918F910F900FBE0F901F90189587E704
:1037A00097E790930108809300089AE088E10FB6AC
:1037B000F894A895809360000FBE90936000FFCFAF
:1037C0000E94321A811102C00E94A91A0E943D1A59
:1037D0008093E8010E94451A90E090933102809313
:1037E00030020E94411A682F70E080E090E00C9453
:1037F000C9178091EC0180FF0BC060910E0185E03C
:10380000689FB001112475956795759567952BC0D4
:1038100081FF09C060910E0185E0689FB00111240D
:103820007595679520C082FF07C060910E0185E005
:10383000689FB001112417C09091ED019923D1F038
:1038400060910D01961788F720910E0185E0289F61
:1038500090011124929FA001939F500D112470E0BC
:10386000CA010E9429286038710540F4611571056C
:1038700039F002C065E070E0862F08958FE7089563
:1038800081E008958091EC0180FF08C060910C01F7
:1038900070E0759567957595679521C081FF06C0A5
:1038A00060910C0170E07595679519C082FF04C0A6
:1038B00060910C0170E010C09091ED019923C1F06E
:1038C00060910B019617A0F780910C01899FC001B0
:1038D000112470E00E9429286038710528F46115D0
:1038E000710521F0862F08958FE7089581E00895EE
:1038F00061E070E0F4CF803F21F40E94F91B8195D4
:1039000004C0813F29F40E94F91B8093F1010895BE
:10391000823F21F40E94F91B819504C0833F29F462
:103920000E94F91B8093F0010895893F19F40E94C9
:10393000421C05C08A3F31F40E94421C819580934D
:10394000F20108958B3F21F40E94421C819504C02E
:103950008C3F29F40E94421C8093F3010895843F18
:1039600021F48091EF01816017C0853F21F480919F
:10397000EF01826011C0863F21F48091EF018460E5
:103980000BC0873F21F48091EF01886005C0883F1C
:1039900031F48091EF0180618093EF0108958D3FB4
:1039A00021F48091EC0181600BC08E3F21F4809165
:1039B000EC01826005C08F3F29F48091EC018460A6
:1039C0008093EC010895803F39F48091F10187FFE5
:1039D0006CC01092F10169C0813F29F48091F1011E
:1039E0001816BCF362C09091F001823F29F497FF52
:1039F0005CC01092F00159C0833F19F41916CCF342
:103A000054C0893F41F48091F20118160CF04DC06A
:103A10001092F2014AC08A3F29F48091F20187FF97
:103A200044C0F6CF8B3F39F48091F30187FF3DC04E
:103A30001092F3013AC08C3F29F48091F3011816DB
:103A4000BCF333C0843F21F48091EF018E7F17C017
:103A5000853F21F48091EF018D7F11C0863F21F4D5
:103A60008091EF018B7F0BC0873F21F48091EF01A4
:103A7000877F05C0883F31F48091EF018F7E80936E
:103A8000EF0113C08D3F21F48091EC018E7F0BC0BC
:103A90008E3F21F48091EC018D7F05C08F3F29F48A
:103AA0008091EC018B7F8093EC018091F00181117A
:103AB0000EC08091F10181110AC08091F201811143
:103AC00006C08091F301811102C01092ED010895AA
:103AD0008EEE91E00E943B0E0E94731B9093EB01CF
:103AE0008093EA0108951F93CF93DF938091EA01B9
:103AF0009091EB010E947F1BAC019091ED01992305
:103B000021F020910F0130E006C0209110018AE0E1
:103B1000289F900111244217530708F47BC080911D
:103B2000F001C091F101D091F2011091F3018111E6
:103B300007C0C1116BC0D11169C0111167C06AC043
:103B40009F3F19F09F5F9093ED01181624F40E9497
:103B5000F91B8093F0018091F00187FF05C00E945E
:103B6000F91B81958093F0011C1624F40E94F91B27
:103B70008093F1018091F10187FF05C00E94F91B3C
:103B800081958093F1013091F0013323E1F0209190
:103B9000F1012223C1F045EB3403C0011124892F28
:103BA000990F990B009709F481E08093F00135EBB0
:103BB0002303C0011124892F990F990B009709F451
:103BC00081E08093F1011D1624F40E94421C809331
:103BD000F2018091F20187FF05C00E94421C81958D
:103BE0008093F201111624F40E94421C8093F30189
:103BF0008091F30187FF05C00E94421C819580934C
:103C0000F301DF91CF911F910C94681D9F3F09F044
:103C100099CFA1CFDF91CF911F910895EEEEF1E002
:103C200086E0DF011D928A95E9F71092ED0110926E
:103C3000EC010895833081F128F4813059F082300D
:103C4000D1F00895853009F449C0B8F1863009F4FF
:103C500056C0089580911001262F30E0280F311DA5
:103C60002F3F310524F4680F6093100108958FEF02
:103C700080931001089580910F01262F30E0280FC6
:103C8000311D2F3F310524F4680F60930F01089513
:103C90008FEF80930F01089580910E01262F30E061
:103CA000280F311D2F3F310524F4680F60930E015A
:103CB00008958FEF80930E01089580910D01262FB6
:103CC00030E0280F311D2F3F310524F4680F609339
:103CD0000D0108958FEF80930D01089580910C01DF
:103CE000262F30E0280F311D2F3F310524F4680FB7
:103CF00060930C0108958FEF80930C0108958091DB
:103D00000B01262F30E0280F311D2F3F310524F401
:103D1000680F60930B0108958FEF80930B01089556
:103D2000833011F128F4813049F0823091F0089508
:103D3000853081F120F18630C1F108958091100124
:103D4000681720F4861B80931001089510921001CB
:103D5000089580910F01681720F4861B80930F014E
:103D6000089510920F01089580910E01681720F4B4
:103D7000861B80930E01089510920E010895809184
:103D80000D01681720F4861B80930D010895109291
:103D90000D01089580910C01681720F4861B809313
:103DA0000C01089510920C01089580910B01681781
:103DB00020F4861B80930B01089510920B01089547
:103DC0000F931F938732D8F58E3108F081C08E3063
:103DD00009F46BC098F4873009F459C08B3009F4AA
:103DE0008BC0863009F08FC08091E801817F8E7F83
:103DF0008093E80181E08093F50186C0863109F463
:103E00007BC068F4803109F07EC08091E80183FBBB
:103E1000222720F991E0922790FB83F94FC0893146
:103E200009F46AC08B3109F06EC08091E80181FB12
:103E3000222720F991E0922790FB81F93FC0883337
:103E400009F45AC050F4893209F458C0853309F492
:103E500055C0873209F452C056C0833409F44EC0AD
:103E600028F48A3308F44FC0895333C0883409F0EA
:103E70004AC00E94F1130FEF13ED20E301501040F0
:103E80002040E1F700C000000E94CF1B35C08091A8
:103E9000E801982F9095917090FB80F98093E8014C
:103EA00091112AC0897F877F10C08091E80182FB31
:103EB000222720F991E0922790FB82F98093E80174
:103EC0009923D1F08091E80181608093E80114C0CA
:103ED0008D5141E050E060E070E08A019B0104C038
:103EE000000F111F221F331F8A95D2F7C901B80195
:103EF0000E94C9170E94F11381E006C061E070E0E2
:103F000080E090E0F5CF80E01F910F91089580E070
:103F1000089580E008958E518A3030F4E82FF0E063
:103F2000E45DFE4F8081089580E00895CF93C82F0F
:103F30008091F501813069F018F08230C9F183C0B9
:103F4000E0910901F0910A018081823209F07DC07F
:103F500007C0E0910901F0910A018081823261F489
:103F60008C2F0E94871F811104C08C2F0E94E01E9D
:103F70001DC081E090E01AC08C2F0E94891F811122
:103F800014C0C43179F048F4CB3079F0C03109F075
:103F900060C082E08093F50108C0C93219F0C833CF
:103FA00021F057C01092F50154C081E0817053C0D8
:103FB000C93289F118F5C43171F1B0F4C73009F094
:103FC00046C08EE18093100182E380930F018AE066
:103FD00080930E0184E180930D0188E080930C01B1
:103FE00088E280930B0133C082EE8C0F863078F527
:103FF0008C2F0E948B1F8093F40129C0CE34E9F0EE
:1040000020F4CB3421F56AE013C0C13579F0C23514
:10401000F1F461E00DC08091F401882319F0109251
:10402000F40115C081E08093F50115C061E006C080
:104030008091F4010E941A1E0AC06AE08091F40186
:104040000E94901E04C01092F50180E004C081E03F
:1040500002C080E0ABCFCF9108950E94321A811147
:1040600002C00E94A91A0E944E1A80933202282F81
:10407000269530E02630310524F081708A608093E7
:1040800032028091320280FF02C0869501C080E03A
:104090000C94D10220913202822F8695482F50E055
:1040A0004530510544F48F5F982F990F822F81700E
:1040B000892B809332028091320281608093320298
:1040C0000E94521A8091320286950C94D1028091FE
:1040D0003202982F969591F09158990F8170892B03
:1040E000809332028E7F91E009F490E08091320259
:1040F00090FB80F9809332020E94521A8091320222
:1041000086950C94D1028091320280FD11C08160AD
:1041100080933202813019F483E0809332028091DF
:1041200032020E94521A8091320286950C94D1027A
:1041300008958091320280FF08C08E7F8093320202
:104140000E94521A80E00C94D102089580913202AC
:1041500080FD0C9499200C94832090913202892F39
:1041600086958F5F8F779170863028F4880F892B22
:104170008093320202C090933202809132028E7F8D
:1041800091E009F490E08091320290FB80F98093F5
:1041900032020E94521A8091320286950C94D1020A
:1041A000863008F085E0880F909132029170892B5B
:1041B000809332028E7F91E009F490E08091320288
:1041C00090FB80F9809332020E94521A8091320251
:1041D00086950C94D1028091FE0108950F931F9350
:1041E000CF93DF9300D01F92CDB7DEB78C010E9432
:1041F0004C23823011F0843021F584E089831B83C5
:104200000A8382E08093E9008FEF9091E80081506B
:1042100095FD06C095ED9A95F1F700008111F5CF57
:104220008091E80085FF0DC040E050E063E070E061
:10423000CE0101960E9469238091E8008E778093D9
:10424000E8000F900F900F90DF91CF911F910F9189
:104250000895CF93DF9300D01F92CDB7DEB72091A2
:104260003702243031F523E02983805891099B835C
:104270008A8382E08093E9008FEF9091E80081507B
:1042800095FD06C095ED9A95F1F700008111F5CFE7
:104290008091E80085FF0DC040E050E063E070E0F1
:1042A000CE0101960E9469238091E8008E77809369
:1042B000E8000F900F900F90DF91CF910895CF936A
:1042C000DF93EC010E944C23823011F08430F9F42A
:1042D00082E08093E9009FEF8091E800915085FD96
:1042E00006C085ED8A95F1F700009111F5CF809118
:1042F000E80085FF0CC040E050E066E070E0CE01D1
:104300000E9469238091E8008E778093E800DF9116
:10431000CF910895CF93DF93EC010E944C2382301C
:1043200011F0843039F581E08093E9008FEF9091AE
:10433000E800815095FD06C095ED9A95F1F70000D3
:104340008111F5CF8091E80085FF14C040E050E076
:1043500068E070E0CE010E9469238091E8008E77CA
:104360008093E80088E0FE01A6EFB1E001900D9295
:104370008A95E1F7DF91CF910895809136028111FE
:1043800009C00E94FE240E945B258091E2008460A7
:104390008093E200089510923602089508950895DA
:1043A0000C94371B42E061EC81E00E94782442E2E9
:1043B00061EC82E00C94782480913902833009F416
:1043C00064C030F4813071F0823009F49DC00895EA
:1043D0008A3009F489C08B3009F46FC0893009F044
:1043E000ABC020C080913802813A09F0A5C080910D
:1043F000E800877F8093E80080913C0290913D0225
:10440000892B21F468E086EF91E003C060E080E052
:1044100090E070E00E94B4238091E8008B77809355
:10442000E800089580913802813209F085C08091BA
:104430003C0290913D02029708F07EC08091E80016
:10444000877F8093E8008091E80082FD05C080911D
:1044500037028111F8CF70C02091F3008091F200F3
:1044600090E0922B029749F480911B01882329F058
:104470008091F1008B7F813021F48091F100809355
:10448000FE018091E8008B7753C080913802813A19
:1044900009F052C080913C0290913D02892B09F0B5
:1044A0004BC08091E800877F8093E8008091E8000E
:1044B00080FFFCCF80911B0136C080913802813291
:1044C000D9F580913C0290913D02892BA9F580910C
:1044D000E800877F8093E8000E94AD2480913A0233
:1044E00080931B010C94F11380913802813221F5E5
:1044F0008091E800877F8093E8000E94AD2480913E
:104500003B028093FF01089580913802813AA1F423
:104510008091E800877F8093E8008091E80080FF29
:10452000FCCF8091FF018093F1008091E8008E77AD
:104530008093E8000C94AD24089584B7877F84BFEE
:104540000FB6F894A8958091600088618093600010
:10455000109260000FBE80E88093610010926100AD
:104560000E947C0E0E94FE240E945B258091E20046
:1045700084608093E20078940E94EA270E94820E71
:1045800081E191E00E941F0E80913702853069F42D
:104590000E94EB1A809135028823B1F30E94201B00
:1045A000882391F30E945323EFCF0E948C0EECCF0F
:1045B0000C94DA22292F332723303105C9F064F413
:1045C0002130310581F02230310509F04CC08BE3F8
:1045D00090E02AEE33E04BC02132310521F1223246
:1045E000310589F140C082E190E025E234E03FC02E
:1045F00099278130910571F02CF4892BA1F5E6EE15
:10460000F3E00DC08230910541F0039761F5E2EBD4
:10461000F3E005C0E6EDF3E002C0E8EBF3E08491DF
:1046200090E09F0124C06115710541F06130710572
:10463000D1F489E090E025E134E019C089E090E010
:104640002CEF33E014C06115710541F06130710544
:1046500051F485E890E027E334E009C080E490E07D
:104660002CEB34E004C080E090E020E030E0FA0180
:104670003183208308950895CF93C82F0E943B2350
:10468000C0930002CF91089580913702843011F0D9
:1046900081E0089582E0089580910002811102C0B6
:1046A0000C944423089580E189BD82E189BD09B459
:1046B00000FEFDCF8091D8008F7D8093D80080913F
:1046C000E00082608093E0008091E00081FDFCCFFB
:1046D0000895CF92DF92EF92FF920F931F93CF93A3
:1046E000DF93EC018B016A010E94CC24811133C05D
:1046F000C114D10439F0F60180819181081B190B96
:10470000C80FD91FE12CF12C0115110519F1809169
:10471000E80085FD16C08091E8008E778093E80060
:10472000C114D10449F0F60180819181E80EF91E8F
:10473000F182E08285E00FC00E94CC24882321F31F
:104740000AC089918093F10001501109FFEFEF1A1F
:10475000FF0ADACF80E0DF91CF911F910F91FF9098
:10476000EF90DF90CF90089520913E0230913F026C
:104770002617370748F06115710539F42091E800D4
:104780002E772093E80001C0B90140E06115710562
:10479000A9F120913702222309F443C0253009F4FE
:1047A00042C02091E80023FD40C02091E80022FD96
:1047B00032C02091E80020FFE9CF4091F300209122
:1047C000F20030E0342BFC01CF016115710559F086
:1047D0002830310540F481918093F10061507109D6
:1047E0002F5F3F4FF1CF41E02830310509F040E025
:1047F0002091E8002E772093E800C8CF4111C9CF5F
:104800000AC080913702882361F0853061F0809181
:10481000E80083FD0AC08091E80082FFF2CF80E0CB
:10482000089582E0089583E0089581E0089520913D
:104830003E0230913F022617370748F06115710597
:1048400039F42091E8002E772093E80001C0B901E7
:10485000FC0120E06115710591F1809137028823F8
:1048600009F440C0853009F43FC08091E80083FD21
:104870003DC08091E80082FD2FC08091E80080FF5C
:10488000E9CF2091F3008091F20090E0922B611526
:10489000710559F08830910540F424912093F1007E
:1048A0003196615071090196F2CF21E0089709F025
:1048B00020E08091E8008E778093E800CBCF211133
:1048C000CCCF0AC080913702882361F0853061F037
:1048D0008091E80083FD0AC08091E80082FFF2CF5A
:1048E00080E0089582E0089583E0089581E00895CE
:1048F000982F973058F59093E900981739F07091F8
:10490000EC002091ED005091F00003C0242F762F91
:1049100050E021FF19C03091EB003E7F3093EB0057
:104920003091ED003D7F3093ED003091EB00316030
:104930003093EB007093EC002093ED005093F00067
:104940002091EE0027FF07C09F5FD3CF8F70809329
:10495000E90081E0089580E008958091380287FFA2
:1049600011C08091E80082FD05C08091370281115D
:10497000F8CF11C08091E8008B770BC0809137028F
:10498000882349F08091E80080FFF8CF8091E8000B
:104990008E778093E80008952091E4003091E5003F
:1049A00095E64091EC00842F817040FF22C08091F9
:1049B000E80080FD1CC080913702882391F085308B
:1049C00091F08091EB0085FD10C04091E400509182
:1049D000E5004217530729F39A01915011F784E03B
:1049E000089582E0089583E0089581E0089580E0CD
:1049F00008954091E80042FFDECF08950E946C25A3
:104A00000E947425E0EEF0E0808181608083E8ED13
:104A1000F0E080818F77808319BCA7EDB0E08C91A6
:104A20008E7F8C9380818F7E8083109236020895D2
:104A30000F931F93CF93DF930E946C250E947425E0
:104A4000C8EDD0E088818F778883888180688883EB
:104A500088818F7D888319BC1092370210923302AF
:104A6000109235021092340200EE10E0F8018081BD
:104A70008B7F808388818160888342E060E080E072
:104A80000E947824E1EEF0E080818E7F8083E2EE68
:104A9000F0E0808181608083808188608083F8017C
:104AA00080818E7F8083888180618883DF91CF9130
:104AB0001F910F910895E8EDF0E080818F7E808353
:104AC000E7EDF0E080818160808384E082BF81E057
:104AD000809336020C941825E8EDF0E080818E7FFB
:104AE00080831092E20008951092DA001092E100A3
:104AF00008951F920F920FB60F9211242F933F9398
:104B00004F935F936F937F938F939F93AF93BF93D5
:104B1000EF93FF938091E10082FF0BC08091E20050
:104B200082FF07C08091E1008B7F8093E1000E94AB
:104B3000E9278091DA0080FF1FC08091D80080FFB4
:104B40001BC08091DA008E7F8093DA008091D900BB
:104B500080FF0DC080E189BD82E189BD09B400FEFE
:104B6000FDCF81E0809337020E94BD2105C019BCB2
:104B7000109237020E94CB218091E10080FF19C082
:104B80008091E20080FF15C08091E2008E7F8093CB
:104B9000E2008091E20080618093E2008091D80081
:104BA00080628093D80019BC85E0809337020E9410
:104BB000CF218091E10084FF30C08091E20084FF2A
:104BC0002CC080E189BD82E189BD09B400FEFDCF22
:104BD0008091D8008F7D8093D8008091E1008F7EF6
:104BE0008093E1008091E2008F7E8093E2008091CB
:104BF000E20081608093E20080913302882311F00B
:104C000084E007C08091E30087FD02C081E001C01D
:104C100083E0809337020E94D0218091E10083FFDE
:104C200029C08091E20083FF25C08091E100877F49
:104C30008093E10082E080933702109233028091EA
:104C4000E1008E7F8093E1008091E2008E7F80936F
:104C5000E2008091E20080618093E20042E060E047
:104C600080E00E9478248091F00088608093F000BA
:104C70000E94CE21FF91EF91BF91AF919F918F91B3
:104C80007F916F915F914F913F912F910F900FBE48
:104C90000F901F9018951F920F920FB60F9211242C
:104CA0002F933F934F935F936F937F938F939F9334
:104CB000AF93BF93CF93DF93EF93FF93C091E9003E
:104CC000CF708091EC00D82FD17080FDD0E8109289
:104CD000E9008091F000877F8093F00078940E9433
:104CE0008F261092E9008091F00088608093F00098
:104CF000CD2BCF70C093E900FF91EF91DF91CF9161
:104D0000BF91AF919F918F917F916F915F914F91E3
:104D10003F912F910F900FBE0F901F9018951F93EA
:104D2000CF93DF93CDB7DEB7AA970FB6F894DEBF67
:104D30000FBECDBFE8E3F2E088E08E0F9091F10066
:104D400091938E13FBCF0E94DC218091E80083FFBA
:104D500028C18091380290913902492F50E04A30A1
:104D6000510508F01EC1FA01E556FF4F0C945F286B
:104D7000803821F0823809F014C108C080913402D3
:104D800090913502992389F082600FC080913C0296
:104D90008F70873008F005C18093E9008091EB00A7
:104DA00085FB882780F91092E9009091E800977FB1
:104DB0009093E8008093F1001092F100D0C0282F6A
:104DC0002D7F09F0EEC0882319F0823061F0E9C030
:104DD00080913A02813009F0E4C0933009F080E01C
:104DE000809335022EC080913A0281112AC08091B1
:104DF0003C028F702FEF280F263008F0D2C080932E
:104E0000E9002091EB0020FF1CC0933021F4809139
:104E1000EB00806214C09091EB0090619093EB00E6
:104E200021E030E0A90102C0440F551F8A95E2F746
:104E30004093EA001092EA008091EB008860809332
:104E4000EB001092E9008091E800877F8093E800F2
:104E50000E94AD24A6C08111A4C010913A021F7710
:104E60008091E3008078812B8093E3008091E800BB
:104E7000877F8093E8000E94AD248091E80080FF46
:104E8000FCCF8091E30080688093E300111102C0A1
:104E900082E001C083E08093370283C08058823073
:104EA00008F07FC080913A0290913B028C3D53E024
:104EB000950779F583E08A838AE289834FB7F8946E
:104EC000DE01139620E03EE051E2E32FF0E0509344
:104ED0005700E49120FF03C0E295EF703F5FEF7051
:104EE0008E2F90E0EA3010F0C79601C0C0968D93E7
:104EF0009D932F5F243149F74FBF8091E800877F52
:104F00008093E8006AE270E0CE0101960E94B4232B
:104F100015C060913C0270913D02AE014F5F5F4F42
:104F20000E94D822BC01892BE1F19091E800977F83
:104F30009093E80089819A810E9417248091E8006B
:104F40008B778093E8002DC0803859F58091E80078
:104F5000877F8093E800809133028093F1008091F5
:104F6000E8008E7773CF81111CC090913A02923085
:104F7000C0F48091E800877F8093E800909333022B
:104F80000E94AD2480913302811106C08091E3001C
:104F900087FD02C081E001C084E0809337020E9457
:104FA000D2218091E80083FF0AC08091E800877FCA
:104FB0008093E8008091EB0080628093EB00AA96DA
:104FC0000FB6F894DEBF0FBECDBFDF91CF911F911A
:104FD00008950895CF93809137028823A1F0C0915E
:104FE000E900CF709091EC00892F817090FD80E8EE
:104FF000C82B1092E9008091E80083FD0E948F2663
:10500000CF70C093E900CF910895DB018F939F93F8
:105010000E947428BF91AF91A29F800D911DA39F04
:10502000900DB29F900D11240895AA1BBB1B51E156
:1050300007C0AA1FBB1FA617B70710F0A61BB70B08
:10504000881F991F5A95A9F780959095BC01CD01AD
:10505000089597FB072E16F4009407D077FD09D02A
:105060000E94152807FC05D03EF4909581959F4F2E
:105070000895709561957F4F0895A1E21A2EAA1B9D
:10508000BB1BFD010DC0AA1FBB1FEE1FFF1FA217F8
:10509000B307E407F50720F0A21BB30BE40BF50BF5
:1050A000661F771F881F991F1A9469F7609570957E
:1050B000809590959B01AC01BD01CF010895EE0F45
:1050C000FF1F0590F491E02D0994A29FB001B39FBA
:1050D000C001A39F700D811D1124911DB29F700D01
:1050E000811D1124911D08950E946528A59F900D92
:1050F000B49F900DA49F800D911D11240895F999DE
:10510000FECF92BD81BDF89A992780B50895A6E19A
:10511000B0E044E050E00C94B928A8E1B0E042E0EF
:1051200050E00C94B928262FF999FECF92BD81BD8D
:10513000F89A019700B4021639F01FBA20BD0FB6D5
:10514000F894FA9AF99A0FBE08950396272F0E94B1
:1051500094280E949328252F0E949428242F0C9491
:1051600094280196272F0E9494280C949328DC0100
:10517000CB01FC01F999FECF06C0F2BDE1BDF89A62
:10518000319600B40D9241505040B8F70895F8940C
:02519000FFCF4F
:105192003D01013E01053F0101DD012808140A32EB
:1051A2001EEB208A215F212921EE2001F6F73133FF
:1051B200323697C6349294000000000001020304C4
:0651C200050607080900C4
:00000001FF
